{
  "_format": "hh-sol-artifact-1",
  "contractName": "SoulLabStake",
  "sourceName": "contracts/staking/SoulLabStake.sol",
  "abi": [
    {
      "anonymous": false,
      "inputs": [
        {
          "indexed": true,
          "internalType": "address",
          "name": "previousOwner",
          "type": "address"
        },
        {
          "indexed": true,
          "internalType": "address",
          "name": "newOwner",
          "type": "address"
        }
      ],
      "name": "OwnershipTransferred",
      "type": "event"
    },
    {
      "anonymous": false,
      "inputs": [
        {
          "indexed": false,
          "internalType": "address",
          "name": "account",
          "type": "address"
        }
      ],
      "name": "Paused",
      "type": "event"
    },
    {
      "anonymous": false,
      "inputs": [
        {
          "indexed": false,
          "internalType": "address",
          "name": "account",
          "type": "address"
        }
      ],
      "name": "Unpaused",
      "type": "event"
    },
    {
      "inputs": [],
      "name": "ERC1155_ACCEPTED",
      "outputs": [
        {
          "internalType": "bytes4",
          "name": "",
          "type": "bytes4"
        }
      ],
      "stateMutability": "view",
      "type": "function"
    },
    {
      "inputs": [],
      "name": "ERC1155_BATCH_ACCEPTED",
      "outputs": [
        {
          "internalType": "bytes4",
          "name": "",
          "type": "bytes4"
        }
      ],
      "stateMutability": "view",
      "type": "function"
    },
    {
      "inputs": [],
      "name": "ERC1155_ERC165",
      "outputs": [
        {
          "internalType": "bytes4",
          "name": "",
          "type": "bytes4"
        }
      ],
      "stateMutability": "view",
      "type": "function"
    },
    {
      "inputs": [],
      "name": "ERC1155_ERC165_TOKENRECEIVER",
      "outputs": [
        {
          "internalType": "bytes4",
          "name": "",
          "type": "bytes4"
        }
      ],
      "stateMutability": "view",
      "type": "function"
    },
    {
      "inputs": [],
      "name": "SOUL_LAB_TOKEN",
      "outputs": [
        {
          "internalType": "address",
          "name": "",
          "type": "address"
        }
      ],
      "stateMutability": "view",
      "type": "function"
    },
    {
      "inputs": [],
      "name": "claim",
      "outputs": [],
      "stateMutability": "nonpayable",
      "type": "function"
    },
    {
      "inputs": [
        {
          "internalType": "address",
          "name": "",
          "type": "address"
        },
        {
          "internalType": "address",
          "name": "from",
          "type": "address"
        },
        {
          "internalType": "uint256[]",
          "name": "ids",
          "type": "uint256[]"
        },
        {
          "internalType": "uint256[]",
          "name": "",
          "type": "uint256[]"
        },
        {
          "internalType": "bytes",
          "name": "",
          "type": "bytes"
        }
      ],
      "name": "onERC1155BatchReceived",
      "outputs": [
        {
          "internalType": "bytes4",
          "name": "",
          "type": "bytes4"
        }
      ],
      "stateMutability": "nonpayable",
      "type": "function"
    },
    {
      "inputs": [
        {
          "internalType": "address",
          "name": "",
          "type": "address"
        },
        {
          "internalType": "address",
          "name": "from",
          "type": "address"
        },
        {
          "internalType": "uint256",
          "name": "id",
          "type": "uint256"
        },
        {
          "internalType": "uint256",
          "name": "",
          "type": "uint256"
        },
        {
          "internalType": "bytes",
          "name": "",
          "type": "bytes"
        }
      ],
      "name": "onERC1155Received",
      "outputs": [
        {
          "internalType": "bytes4",
          "name": "",
          "type": "bytes4"
        }
      ],
      "stateMutability": "nonpayable",
      "type": "function"
    },
    {
      "inputs": [],
      "name": "owner",
      "outputs": [
        {
          "internalType": "address",
          "name": "",
          "type": "address"
        }
      ],
      "stateMutability": "view",
      "type": "function"
    },
    {
      "inputs": [],
      "name": "paused",
      "outputs": [
        {
          "internalType": "bool",
          "name": "",
          "type": "bool"
        }
      ],
      "stateMutability": "view",
      "type": "function"
    },
    {
      "inputs": [],
      "name": "renounceOwnership",
      "outputs": [],
      "stateMutability": "nonpayable",
      "type": "function"
    },
    {
      "inputs": [
        {
          "internalType": "bytes4",
          "name": "interfaceID",
          "type": "bytes4"
        }
      ],
      "name": "supportsInterface",
      "outputs": [
        {
          "internalType": "bool",
          "name": "",
          "type": "bool"
        }
      ],
      "stateMutability": "view",
      "type": "function"
    },
    {
      "inputs": [
        {
          "internalType": "address",
          "name": "newOwner",
          "type": "address"
        }
      ],
      "name": "transferOwnership",
      "outputs": [],
      "stateMutability": "nonpayable",
      "type": "function"
    }
  ],
  "bytecode": "0x608060405273829bd824b016326a401d083b33d092293333a830609760006101000a81548173ffffffffffffffffffffffffffffffffffffffff021916908373ffffffffffffffffffffffffffffffffffffffff160217905550609760009054906101000a900473ffffffffffffffffffffffffffffffffffffffff16609860006101000a81548173ffffffffffffffffffffffffffffffffffffffff021916908373ffffffffffffffffffffffffffffffffffffffff1602179055503480156100c857600080fd5b5061114f806100d86000396000f3fe608060405234801561001057600080fd5b50600436106100cf5760003560e01c8063715018a61161008c578063af95998c11610066578063af95998c146101cc578063bc197c81146101ea578063f23a6e611461021a578063f2fde38b1461024a576100cf565b8063715018a6146101865780638da5cb5b146101905780639afdd8fb146101ae576100cf565b806301ffc9a7146100d457806310c2f3f51461010457806312d0b33a1461012257806321caec10146101405780634e71d92d1461015e5780635c975abb14610168575b600080fd5b6100ee60048036038101906100e9919061099a565b610266565b6040516100fb91906109e2565b60405180910390f35b61010c6102c8565b6040516101199190610a0c565b60405180910390f35b61012a6102d3565b6040516101379190610a0c565b60405180910390f35b6101486102de565b6040516101559190610a0c565b60405180910390f35b6101666102e9565b005b610170610573565b60405161017d91906109e2565b60405180910390f35b61018e61058a565b005b610198610612565b6040516101a59190610a68565b60405180910390f35b6101b661063c565b6040516101c39190610a0c565b60405180910390f35b6101d4610647565b6040516101e19190610a68565b60405180910390f35b61020460048036038101906101ff9190610b6a565b61066d565b6040516102119190610a0c565b60405180910390f35b610234600480360381019061022f9190610c7c565b6106b1565b6040516102419190610a0c565b60405180910390f35b610264600480360381019061025f9190610d16565b6106d0565b005b60006301ffc9a760e01b827bffffffffffffffffffffffffffffffffffffffffffffffffffffffff191614806102c15750634e2312e060e01b827bffffffffffffffffffffffffffffffffffffffffffffffffffffffff1916145b9050919050565b63d9b67a2660e01b81565b63bc197c8160e01b81565b63f23a6e6160e01b81565b6000609960003373ffffffffffffffffffffffffffffffffffffffff1673ffffffffffffffffffffffffffffffffffffffff168152602001908152602001600020600001541161036e576040517f08c379a000000000000000000000000000000000000000000000000000000000815260040161036590610da0565b60405180910390fd5b60006018603c80609960003373ffffffffffffffffffffffffffffffffffffffff1673ffffffffffffffffffffffffffffffffffffffff16815260200190815260200160002060010154426103c39190610def565b6103cd9190610e52565b6103d79190610e52565b6103e19190610e52565b90506000601e8210156103f7576005905061040f565b60b482101561040957600a905061040e565b600f90505b5b609860009054906101000a900473ffffffffffffffffffffffffffffffffffffffff1673ffffffffffffffffffffffffffffffffffffffff166323b872dd610455610612565b33609960003373ffffffffffffffffffffffffffffffffffffffff1673ffffffffffffffffffffffffffffffffffffffff168152602001908152602001600020600001546064600f609960003373ffffffffffffffffffffffffffffffffffffffff1673ffffffffffffffffffffffffffffffffffffffff168152602001908152602001600020600001546104ea9190610e83565b6104f49190610e52565b6104fe9190610edd565b6040518463ffffffff1660e01b815260040161051c93929190610f42565b602060405180830381600087803b15801561053657600080fd5b505af115801561054a573d6000803e3d6000fd5b505050506040513d601f19601f8201168201806040525081019061056e9190610fa5565b505050565b6000603360009054906101000a900460ff16905090565b6105926107c8565b73ffffffffffffffffffffffffffffffffffffffff166105b0610612565b73ffffffffffffffffffffffffffffffffffffffff1614610606576040517f08c379a00000000000000000000000000000000000000000000000000000000081526004016105fd9061101e565b60405180910390fd5b61061060006107d0565b565b6000606560009054906101000a900473ffffffffffffffffffffffffffffffffffffffff16905090565b634e2312e060e01b81565b609760009054906101000a900473ffffffffffffffffffffffffffffffffffffffff1681565b600080600090505b8787905081101561069a5761068989610896565b806106939061103e565b9050610675565b5063bc197c8160e01b905098975050505050505050565b60006106bc86610896565b63f23a6e6160e01b90509695505050505050565b6106d86107c8565b73ffffffffffffffffffffffffffffffffffffffff166106f6610612565b73ffffffffffffffffffffffffffffffffffffffff161461074c576040517f08c379a00000000000000000000000000000000000000000000000000000000081526004016107439061101e565b60405180910390fd5b600073ffffffffffffffffffffffffffffffffffffffff168173ffffffffffffffffffffffffffffffffffffffff1614156107bc576040517f08c379a00000000000000000000000000000000000000000000000000000000081526004016107b3906110f9565b60405180910390fd5b6107c5816107d0565b50565b600033905090565b6000606560009054906101000a900473ffffffffffffffffffffffffffffffffffffffff16905081606560006101000a81548173ffffffffffffffffffffffffffffffffffffffff021916908373ffffffffffffffffffffffffffffffffffffffff1602179055508173ffffffffffffffffffffffffffffffffffffffff168173ffffffffffffffffffffffffffffffffffffffff167f8be0079c531659141344cd1fd0a4f28419497f9722a3daafe3b4186f6b6457e060405160405180910390a35050565b609960008273ffffffffffffffffffffffffffffffffffffffff1673ffffffffffffffffffffffffffffffffffffffff16815260200190815260200160002060000160008154809291906108e99061103e565b919050555042609960008373ffffffffffffffffffffffffffffffffffffffff1673ffffffffffffffffffffffffffffffffffffffff1681526020019081526020016000206001018190555050565b600080fd5b600080fd5b60007fffffffff0000000000000000000000000000000000000000000000000000000082169050919050565b61097781610942565b811461098257600080fd5b50565b6000813590506109948161096e565b92915050565b6000602082840312156109b0576109af610938565b5b60006109be84828501610985565b91505092915050565b60008115159050919050565b6109dc816109c7565b82525050565b60006020820190506109f760008301846109d3565b92915050565b610a0681610942565b82525050565b6000602082019050610a2160008301846109fd565b92915050565b600073ffffffffffffffffffffffffffffffffffffffff82169050919050565b6000610a5282610a27565b9050919050565b610a6281610a47565b82525050565b6000602082019050610a7d6000830184610a59565b92915050565b610a8c81610a47565b8114610a9757600080fd5b50565b600081359050610aa981610a83565b92915050565b600080fd5b600080fd5b600080fd5b60008083601f840112610ad457610ad3610aaf565b5b8235905067ffffffffffffffff811115610af157610af0610ab4565b5b602083019150836020820283011115610b0d57610b0c610ab9565b5b9250929050565b60008083601f840112610b2a57610b29610aaf565b5b8235905067ffffffffffffffff811115610b4757610b46610ab4565b5b602083019150836001820283011115610b6357610b62610ab9565b5b9250929050565b60008060008060008060008060a0898b031215610b8a57610b89610938565b5b6000610b988b828c01610a9a565b9850506020610ba98b828c01610a9a565b975050604089013567ffffffffffffffff811115610bca57610bc961093d565b5b610bd68b828c01610abe565b9650965050606089013567ffffffffffffffff811115610bf957610bf861093d565b5b610c058b828c01610abe565b9450945050608089013567ffffffffffffffff811115610c2857610c2761093d565b5b610c348b828c01610b14565b92509250509295985092959890939650565b6000819050919050565b610c5981610c46565b8114610c6457600080fd5b50565b600081359050610c7681610c50565b92915050565b60008060008060008060a08789031215610c9957610c98610938565b5b6000610ca789828a01610a9a565b9650506020610cb889828a01610a9a565b9550506040610cc989828a01610c67565b9450506060610cda89828a01610c67565b935050608087013567ffffffffffffffff811115610cfb57610cfa61093d565b5b610d0789828a01610b14565b92509250509295509295509295565b600060208284031215610d2c57610d2b610938565b5b6000610d3a84828501610a9a565b91505092915050565b600082825260208201905092915050565b7f796f7520646f6e74206861766520616e79207374616b6564206e667400000000600082015250565b6000610d8a601c83610d43565b9150610d9582610d54565b602082019050919050565b60006020820190508181036000830152610db981610d7d565b9050919050565b7f4e487b7100000000000000000000000000000000000000000000000000000000600052601160045260246000fd5b6000610dfa82610c46565b9150610e0583610c46565b925082821015610e1857610e17610dc0565b5b828203905092915050565b7f4e487b7100000000000000000000000000000000000000000000000000000000600052601260045260246000fd5b6000610e5d82610c46565b9150610e6883610c46565b925082610e7857610e77610e23565b5b828204905092915050565b6000610e8e82610c46565b9150610e9983610c46565b9250817fffffffffffffffffffffffffffffffffffffffffffffffffffffffffffffffff0483118215151615610ed257610ed1610dc0565b5b828202905092915050565b6000610ee882610c46565b9150610ef383610c46565b9250827fffffffffffffffffffffffffffffffffffffffffffffffffffffffffffffffff03821115610f2857610f27610dc0565b5b828201905092915050565b610f3c81610c46565b82525050565b6000606082019050610f576000830186610a59565b610f646020830185610a59565b610f716040830184610f33565b949350505050565b610f82816109c7565b8114610f8d57600080fd5b50565b600081519050610f9f81610f79565b92915050565b600060208284031215610fbb57610fba610938565b5b6000610fc984828501610f90565b91505092915050565b7f4f776e61626c653a2063616c6c6572206973206e6f7420746865206f776e6572600082015250565b6000611008602083610d43565b915061101382610fd2565b602082019050919050565b6000602082019050818103600083015261103781610ffb565b9050919050565b600061104982610c46565b91507fffffffffffffffffffffffffffffffffffffffffffffffffffffffffffffffff82141561107c5761107b610dc0565b5b600182019050919050565b7f4f776e61626c653a206e6577206f776e657220697320746865207a65726f206160008201527f6464726573730000000000000000000000000000000000000000000000000000602082015250565b60006110e3602683610d43565b91506110ee82611087565b604082019050919050565b60006020820190508181036000830152611112816110d6565b905091905056fea2646970667358221220776f715c61faf11566168b02fccf824553207b3acee3d946f968e916648965cf64736f6c63430008090033",
  "linkReferences": {},
  "deployedLinkReferences": {}
}