{
  "_format": "hh-sol-artifact-1",
  "contractName": "LodaILT",
  "sourceName": "contracts/tranches/LodaILT.sol",
  "abi": [
    {
      "inputs": [],
      "stateMutability": "nonpayable",
      "type": "constructor"
    },
    {
      "anonymous": false,
      "inputs": [
        {
          "indexed": true,
          "internalType": "address",
          "name": "_from",
          "type": "address"
        },
        {
          "indexed": false,
          "internalType": "uint256",
          "name": "amount",
          "type": "uint256"
        }
      ],
      "name": "FundedContract",
      "type": "event"
    },
    {
      "anonymous": false,
      "inputs": [
        {
          "indexed": true,
          "internalType": "address",
          "name": "previousOwner",
          "type": "address"
        },
        {
          "indexed": true,
          "internalType": "address",
          "name": "newOwner",
          "type": "address"
        }
      ],
      "name": "OwnershipTransferred",
      "type": "event"
    },
    {
      "anonymous": false,
      "inputs": [
        {
          "indexed": false,
          "internalType": "address",
          "name": "account",
          "type": "address"
        }
      ],
      "name": "Paused",
      "type": "event"
    },
    {
      "anonymous": false,
      "inputs": [
        {
          "indexed": true,
          "internalType": "address",
          "name": "_from",
          "type": "address"
        },
        {
          "indexed": false,
          "internalType": "uint256",
          "name": "amount",
          "type": "uint256"
        }
      ],
      "name": "Staked",
      "type": "event"
    },
    {
      "anonymous": false,
      "inputs": [
        {
          "indexed": false,
          "internalType": "address",
          "name": "account",
          "type": "address"
        }
      ],
      "name": "Unpaused",
      "type": "event"
    },
    {
      "stateMutability": "payable",
      "type": "fallback"
    },
    {
      "inputs": [],
      "name": "COOL_OFF_NONE",
      "outputs": [
        {
          "internalType": "uint256",
          "name": "",
          "type": "uint256"
        }
      ],
      "stateMutability": "view",
      "type": "function"
    },
    {
      "inputs": [],
      "name": "claimAccruedRewards",
      "outputs": [],
      "stateMutability": "nonpayable",
      "type": "function"
    },
    {
      "inputs": [],
      "name": "initialize",
      "outputs": [],
      "stateMutability": "nonpayable",
      "type": "function"
    },
    {
      "inputs": [],
      "name": "lodaToken",
      "outputs": [
        {
          "internalType": "address",
          "name": "",
          "type": "address"
        }
      ],
      "stateMutability": "view",
      "type": "function"
    },
    {
      "inputs": [],
      "name": "lodeStarToken",
      "outputs": [
        {
          "internalType": "address",
          "name": "",
          "type": "address"
        }
      ],
      "stateMutability": "view",
      "type": "function"
    },
    {
      "inputs": [],
      "name": "owner",
      "outputs": [
        {
          "internalType": "address",
          "name": "",
          "type": "address"
        }
      ],
      "stateMutability": "view",
      "type": "function"
    },
    {
      "inputs": [],
      "name": "paused",
      "outputs": [
        {
          "internalType": "bool",
          "name": "",
          "type": "bool"
        }
      ],
      "stateMutability": "view",
      "type": "function"
    },
    {
      "inputs": [],
      "name": "renounceOwnership",
      "outputs": [],
      "stateMutability": "nonpayable",
      "type": "function"
    },
    {
      "inputs": [
        {
          "internalType": "uint256",
          "name": "stakezz",
          "type": "uint256"
        },
        {
          "internalType": "uint256",
          "name": "tenure",
          "type": "uint256"
        }
      ],
      "name": "stake",
      "outputs": [],
      "stateMutability": "payable",
      "type": "function"
    },
    {
      "inputs": [
        {
          "internalType": "address",
          "name": "",
          "type": "address"
        }
      ],
      "name": "stakes",
      "outputs": [
        {
          "internalType": "uint256",
          "name": "amount",
          "type": "uint256"
        },
        {
          "internalType": "address",
          "name": "staker",
          "type": "address"
        },
        {
          "internalType": "uint256",
          "name": "time",
          "type": "uint256"
        },
        {
          "internalType": "uint256",
          "name": "tenure",
          "type": "uint256"
        },
        {
          "internalType": "uint256",
          "name": "coolOffStarted",
          "type": "uint256"
        }
      ],
      "stateMutability": "view",
      "type": "function"
    },
    {
      "inputs": [
        {
          "internalType": "address",
          "name": "voter",
          "type": "address"
        }
      ],
      "name": "suffrage",
      "outputs": [
        {
          "internalType": "uint256",
          "name": "",
          "type": "uint256"
        }
      ],
      "stateMutability": "view",
      "type": "function"
    },
    {
      "inputs": [
        {
          "internalType": "address",
          "name": "voter",
          "type": "address"
        }
      ],
      "name": "suffrage2",
      "outputs": [
        {
          "internalType": "uint256",
          "name": "",
          "type": "uint256"
        }
      ],
      "stateMutability": "view",
      "type": "function"
    },
    {
      "inputs": [
        {
          "internalType": "uint256",
          "name": "takezz",
          "type": "uint256"
        }
      ],
      "name": "take",
      "outputs": [],
      "stateMutability": "nonpayable",
      "type": "function"
    },
    {
      "inputs": [],
      "name": "totalStaked",
      "outputs": [
        {
          "internalType": "uint256",
          "name": "",
          "type": "uint256"
        }
      ],
      "stateMutability": "view",
      "type": "function"
    },
    {
      "inputs": [
        {
          "internalType": "address",
          "name": "newOwner",
          "type": "address"
        }
      ],
      "name": "transferOwnership",
      "outputs": [],
      "stateMutability": "nonpayable",
      "type": "function"
    },
    {
      "inputs": [
        {
          "internalType": "address",
          "name": "pLodaToken",
          "type": "address"
        }
      ],
      "name": "updateLodaToken",
      "outputs": [],
      "stateMutability": "nonpayable",
      "type": "function"
    },
    {
      "inputs": [
        {
          "internalType": "address",
          "name": "pLodeStarToken",
          "type": "address"
        }
      ],
      "name": "updateLodeStarToken",
      "outputs": [],
      "stateMutability": "nonpayable",
      "type": "function"
    },
    {
      "inputs": [
        {
          "internalType": "address",
          "name": "staker",
          "type": "address"
        },
        {
          "internalType": "uint256",
          "name": "time",
          "type": "uint256"
        }
      ],
      "name": "updateStakeTime_FOR_TEST_REMOVE",
      "outputs": [],
      "stateMutability": "nonpayable",
      "type": "function"
    },
    {
      "inputs": [],
      "name": "withdrawInit",
      "outputs": [],
      "stateMutability": "nonpayable",
      "type": "function"
    }
  ],
  "bytecode": "0x60806040523480156200001157600080fd5b50600060019054906101000a900460ff168062000039575060008054906101000a900460ff16155b6200007b576040517f08c379a000000000000000000000000000000000000000000000000000000000815260040162000072906200017c565b60405180910390fd5b60008060019054906101000a900460ff161590508015620000cc576001600060016101000a81548160ff02191690831515021790555060016000806101000a81548160ff0219169083151502179055505b8015620000ee5760008060016101000a81548160ff0219169083151502179055505b506200019e565b600082825260208201905092915050565b7f496e697469616c697a61626c653a20636f6e747261637420697320616c72656160008201527f647920696e697469616c697a6564000000000000000000000000000000000000602082015250565b600062000164602e83620000f5565b9150620001718262000106565b604082019050919050565b60006020820190508181036000830152620001978162000155565b9050919050565b611aef80620001ae6000396000f3fe6080604052600436106101185760003560e01c8063817b1cd2116100a0578063bb8bf06811610064578063bb8bf0681461039a578063c0dd4d16146103d7578063d59d606814610400578063edcf6f1b1461042b578063f2fde38b1461044257610119565b8063817b1cd2146102b557806386e374a0146102e05780638da5cb5b1461031d5780639fec67a814610348578063bb50d2341461037157610119565b80635c975abb116100e75780635c975abb1461021557806365e25aa214610240578063715018a61461026b5780637b0472f0146102825780638129fc1c1461029e57610119565b806316934fc4146101695780632c7af303146101aa5780634fd9efc4146101c15780635835e2e7146101ea57610119565b5b3373ffffffffffffffffffffffffffffffffffffffff167f5054de4312a1189bfc2250ed8b4c86a6c0f9951ed03a271d0ba5f30a11324a653460405161015f91906112c8565b60405180910390a2005b34801561017557600080fd5b50610190600480360381019061018b9190611346565b61046b565b6040516101a1959493929190611382565b60405180910390f35b3480156101b657600080fd5b506101bf6104c1565b005b3480156101cd57600080fd5b506101e860048036038101906101e39190611401565b6104c3565b005b3480156101f657600080fd5b506101ff610609565b60405161020c919061142e565b60405180910390f35b34801561022157600080fd5b5061022a61062f565b6040516102379190611464565b60405180910390f35b34801561024c57600080fd5b50610255610646565b60405161026291906112c8565b60405180910390f35b34801561027757600080fd5b5061028061064b565b005b61029c6004803603810190610297919061147f565b6106d3565b005b3480156102aa57600080fd5b506102b3610b07565b005b3480156102c157600080fd5b506102ca610bfc565b6040516102d791906112c8565b60405180910390f35b3480156102ec57600080fd5b5061030760048036038101906103029190611346565b610c02565b60405161031491906112c8565b60405180910390f35b34801561032957600080fd5b50610332610daf565b60405161033f919061142e565b60405180910390f35b34801561035457600080fd5b5061036f600480360381019061036a91906114bf565b610dd9565b005b34801561037d57600080fd5b5061039860048036038101906103939190611346565b610e24565b005b3480156103a657600080fd5b506103c160048036038101906103bc9190611346565b610e68565b6040516103ce91906112c8565b60405180910390f35b3480156103e357600080fd5b506103fe60048036038101906103f99190611346565b611020565b005b34801561040c57600080fd5b50610415611064565b604051610422919061142e565b60405180910390f35b34801561043757600080fd5b5061044061108a565b005b34801561044e57600080fd5b5061046960048036038101906104649190611346565b6110d3565b005b609b6020528060005260406000206000915090508060000154908060010160009054906101000a900473ffffffffffffffffffffffffffffffffffffffff16908060020154908060030154908060040154905085565b565b609b60003373ffffffffffffffffffffffffffffffffffffffff1673ffffffffffffffffffffffffffffffffffffffff168152602001908152602001600020600001548111610547576040517f08c379a000000000000000000000000000000000000000000000000000000000815260040161053e9061155c565b60405180910390fd5b600061055382336111cb565b9050609860009054906101000a900473ffffffffffffffffffffffffffffffffffffffff1673ffffffffffffffffffffffffffffffffffffffff1663a9059cbb33836040518363ffffffff1660e01b81526004016105b292919061157c565b602060405180830381600087803b1580156105cc57600080fd5b505af11580156105e0573d6000803e3d6000fd5b505050506040513d601f19601f8201168201806040525081019061060491906115d1565b505050565b609760009054906101000a900473ffffffffffffffffffffffffffffffffffffffff1681565b6000603360009054906101000a900460ff16905090565b600081565b6106536111d6565b73ffffffffffffffffffffffffffffffffffffffff16610671610daf565b73ffffffffffffffffffffffffffffffffffffffff16146106c7576040517f08c379a00000000000000000000000000000000000000000000000000000000081526004016106be9061164a565b60405180910390fd5b6106d160006111de565b565b60008211610716576040517f08c379a000000000000000000000000000000000000000000000000000000000815260040161070d906116b6565b60405180910390fd5b6000609760009054906101000a900473ffffffffffffffffffffffffffffffffffffffff16905060008173ffffffffffffffffffffffffffffffffffffffff1663dd62ed3e33306040518363ffffffff1660e01b815260040161077a9291906116d6565b60206040518083038186803b15801561079257600080fd5b505afa1580156107a6573d6000803e3d6000fd5b505050506040513d601f19601f820116820180604052508101906107ca9190611714565b90508381101561080f576040517f08c379a00000000000000000000000000000000000000000000000000000000081526004016108069061178d565b60405180910390fd5b8173ffffffffffffffffffffffffffffffffffffffff166323b872dd3330876040518463ffffffff1660e01b815260040161084c939291906117ad565b602060405180830381600087803b15801561086657600080fd5b505af115801561087a573d6000803e3d6000fd5b505050506040513d601f19601f8201168201806040525081019061089e91906115d1565b5083609a546108ad9190611813565b609a819055609a819055506040518060a0016040528085609b60003373ffffffffffffffffffffffffffffffffffffffff1673ffffffffffffffffffffffffffffffffffffffff168152602001908152602001600020600001546109119190611813565b81526020013373ffffffffffffffffffffffffffffffffffffffff1681526020014281526020018481526020016000815250609b60003373ffffffffffffffffffffffffffffffffffffffff1673ffffffffffffffffffffffffffffffffffffffff1681526020019081526020016000206000820151816000015560208201518160010160006101000a81548173ffffffffffffffffffffffffffffffffffffffff021916908373ffffffffffffffffffffffffffffffffffffffff1602179055506040820151816002015560608201518160030155608082015181600401559050506000610a0085336112a4565b9050609860009054906101000a900473ffffffffffffffffffffffffffffffffffffffff1673ffffffffffffffffffffffffffffffffffffffff1663a9059cbb33836040518363ffffffff1660e01b8152600401610a5f92919061157c565b602060405180830381600087803b158015610a7957600080fd5b505af1158015610a8d573d6000803e3d6000fd5b505050506040513d601f19601f82011682018060405250810190610ab191906115d1565b503373ffffffffffffffffffffffffffffffffffffffff167f9e71bc8eea02a63969f509818f2dafb9254532904319f9dbda79b67bd34a5f3d86604051610af891906112c8565b60405180910390a25050505050565b600060019054906101000a900460ff1680610b2d575060008054906101000a900460ff16155b610b6c576040517f08c379a0000000000000000000000000000000000000000000000000000000008152600401610b63906118db565b60405180910390fd5b60008060019054906101000a900460ff161590508015610bbc576001600060016101000a81548160ff02191690831515021790555060016000806101000a81548160ff0219169083151502179055505b6064609860146101000a81548160ff021916908360ff1602179055508015610bf95760008060016101000a81548160ff0219169083151502179055505b50565b609a5481565b600080609b60008473ffffffffffffffffffffffffffffffffffffffff1673ffffffffffffffffffffffffffffffffffffffff1681526020019081526020016000206000015490506000609b60008573ffffffffffffffffffffffffffffffffffffffff1673ffffffffffffffffffffffffffffffffffffffff1681526020019081526020016000206003015490506000609b60008673ffffffffffffffffffffffffffffffffffffffff1673ffffffffffffffffffffffffffffffffffffffff1681526020019081526020016000206002015490508042610ce491906118fb565b821115610d83576000620151808242610cfd91906118fb565b610d07919061195e565b905061016d811015610d575761016d816064609860149054906101000a900460ff16610d33919061199c565b60ff168618610d4291906119cd565b610d4c919061195e565b945050505050610daa565b6064609860149054906101000a900460ff16610d73919061199c565b60ff168418945050505050610daa565b6064609860149054906101000a900460ff16610d9f919061199c565b60ff16831893505050505b919050565b6000606560009054906101000a900473ffffffffffffffffffffffffffffffffffffffff16905090565b80609b60008473ffffffffffffffffffffffffffffffffffffffff1673ffffffffffffffffffffffffffffffffffffffff168152602001908152602001600020600201819055505050565b80609760006101000a81548173ffffffffffffffffffffffffffffffffffffffff021916908373ffffffffffffffffffffffffffffffffffffffff16021790555050565b600080609b60008473ffffffffffffffffffffffffffffffffffffffff1673ffffffffffffffffffffffffffffffffffffffff1681526020019081526020016000206000015490506000609b60008573ffffffffffffffffffffffffffffffffffffffff1673ffffffffffffffffffffffffffffffffffffffff1681526020019081526020016000206003015490506000609b60008673ffffffffffffffffffffffffffffffffffffffff1673ffffffffffffffffffffffffffffffffffffffff1681526020019081526020016000206002015490508042610f4a91906118fb565b821115610ff457600062015180824285610f6491906118fb565b610f6e91906118fb565b610f78919061195e565b905061016d811015610fc85761016d81610f92919061195e565b6064609860149054906101000a900460ff16610fae919061199c565b60ff16610fbb91906119cd565b841894505050505061101b565b6064609860149054906101000a900460ff16610fe4919061199c565b60ff16841894505050505061101b565b6064609860149054906101000a900460ff16611010919061199c565b60ff16831893505050505b919050565b80609860006101000a81548173ffffffffffffffffffffffffffffffffffffffff021916908373ffffffffffffffffffffffffffffffffffffffff16021790555050565b609860009054906101000a900473ffffffffffffffffffffffffffffffffffffffff1681565b42609b60003373ffffffffffffffffffffffffffffffffffffffff1673ffffffffffffffffffffffffffffffffffffffff16815260200190815260200160002060040181905550565b6110db6111d6565b73ffffffffffffffffffffffffffffffffffffffff166110f9610daf565b73ffffffffffffffffffffffffffffffffffffffff161461114f576040517f08c379a00000000000000000000000000000000000000000000000000000000081526004016111469061164a565b60405180910390fd5b600073ffffffffffffffffffffffffffffffffffffffff168173ffffffffffffffffffffffffffffffffffffffff1614156111bf576040517f08c379a00000000000000000000000000000000000000000000000000000000081526004016111b690611a99565b60405180910390fd5b6111c8816111de565b50565b600082905092915050565b600033905090565b6000606560009054906101000a900473ffffffffffffffffffffffffffffffffffffffff16905081606560006101000a81548173ffffffffffffffffffffffffffffffffffffffff021916908373ffffffffffffffffffffffffffffffffffffffff1602179055508173ffffffffffffffffffffffffffffffffffffffff168173ffffffffffffffffffffffffffffffffffffffff167f8be0079c531659141344cd1fd0a4f28419497f9722a3daafe3b4186f6b6457e060405160405180910390a35050565b600082905092915050565b6000819050919050565b6112c2816112af565b82525050565b60006020820190506112dd60008301846112b9565b92915050565b600080fd5b600073ffffffffffffffffffffffffffffffffffffffff82169050919050565b6000611313826112e8565b9050919050565b61132381611308565b811461132e57600080fd5b50565b6000813590506113408161131a565b92915050565b60006020828403121561135c5761135b6112e3565b5b600061136a84828501611331565b91505092915050565b61137c81611308565b82525050565b600060a08201905061139760008301886112b9565b6113a46020830187611373565b6113b160408301866112b9565b6113be60608301856112b9565b6113cb60808301846112b9565b9695505050505050565b6113de816112af565b81146113e957600080fd5b50565b6000813590506113fb816113d5565b92915050565b600060208284031215611417576114166112e3565b5b6000611425848285016113ec565b91505092915050565b60006020820190506114436000830184611373565b92915050565b60008115159050919050565b61145e81611449565b82525050565b60006020820190506114796000830184611455565b92915050565b60008060408385031215611496576114956112e3565b5b60006114a4858286016113ec565b92505060206114b5858286016113ec565b9150509250929050565b600080604083850312156114d6576114d56112e3565b5b60006114e485828601611331565b92505060206114f5858286016113ec565b9150509250929050565b600082825260208201905092915050565b7f63616e74207769746864726177206d6f7265207468616e207374616b65000000600082015250565b6000611546601d836114ff565b915061155182611510565b602082019050919050565b6000602082019050818103600083015261157581611539565b9050919050565b60006040820190506115916000830185611373565b61159e60208301846112b9565b9392505050565b6115ae81611449565b81146115b957600080fd5b50565b6000815190506115cb816115a5565b92915050565b6000602082840312156115e7576115e66112e3565b5b60006115f5848285016115bc565b91505092915050565b7f4f776e61626c653a2063616c6c6572206973206e6f7420746865206f776e6572600082015250565b60006116346020836114ff565b915061163f826115fe565b602082019050919050565b6000602082019050818103600083015261166381611627565b9050919050565b7f73686f756c642062652061206e6f6e207a65726f207472616e73666572000000600082015250565b60006116a0601d836114ff565b91506116ab8261166a565b602082019050919050565b600060208201905081810360008301526116cf81611693565b9050919050565b60006040820190506116eb6000830185611373565b6116f86020830184611373565b9392505050565b60008151905061170e816113d5565b92915050565b60006020828403121561172a576117296112e3565b5b6000611738848285016116ff565b91505092915050565b7f7374616b65206c657373207468616e20616c6c6f77616e636500000000000000600082015250565b60006117776019836114ff565b915061178282611741565b602082019050919050565b600060208201905081810360008301526117a68161176a565b9050919050565b60006060820190506117c26000830186611373565b6117cf6020830185611373565b6117dc60408301846112b9565b949350505050565b7f4e487b7100000000000000000000000000000000000000000000000000000000600052601160045260246000fd5b600061181e826112af565b9150611829836112af565b9250827fffffffffffffffffffffffffffffffffffffffffffffffffffffffffffffffff0382111561185e5761185d6117e4565b5b828201905092915050565b7f496e697469616c697a61626c653a20636f6e747261637420697320616c72656160008201527f647920696e697469616c697a6564000000000000000000000000000000000000602082015250565b60006118c5602e836114ff565b91506118d082611869565b604082019050919050565b600060208201905081810360008301526118f4816118b8565b9050919050565b6000611906826112af565b9150611911836112af565b925082821015611924576119236117e4565b5b828203905092915050565b7f4e487b7100000000000000000000000000000000000000000000000000000000600052601260045260246000fd5b6000611969826112af565b9150611974836112af565b9250826119845761198361192f565b5b828204905092915050565b600060ff82169050919050565b60006119a78261198f565b91506119b28361198f565b9250826119c2576119c161192f565b5b828204905092915050565b60006119d8826112af565b91506119e3836112af565b9250817fffffffffffffffffffffffffffffffffffffffffffffffffffffffffffffffff0483118215151615611a1c57611a1b6117e4565b5b828202905092915050565b7f4f776e61626c653a206e6577206f776e657220697320746865207a65726f206160008201527f6464726573730000000000000000000000000000000000000000000000000000602082015250565b6000611a836026836114ff565b9150611a8e82611a27565b604082019050919050565b60006020820190508181036000830152611ab281611a76565b905091905056fea26469706673582212208e59ee21d9f96d7e5bb20d55a803751e52db2ad58b6825f80be7f2239699b78b64736f6c63430008090033",
  "linkReferences": {},
  "deployedLinkReferences": {}
}