{
  "_format": "hh-sol-artifact-1",
  "contractName": "LodaToken",
  "sourceName": "contracts/tokens/LodaToken.sol",
  "abi": [
    {
      "inputs": [],
      "stateMutability": "nonpayable",
      "type": "constructor"
    },
    {
      "anonymous": false,
      "inputs": [
        {
          "indexed": true,
          "internalType": "address",
          "name": "owner",
          "type": "address"
        },
        {
          "indexed": true,
          "internalType": "address",
          "name": "spender",
          "type": "address"
        },
        {
          "indexed": false,
          "internalType": "uint256",
          "name": "value",
          "type": "uint256"
        }
      ],
      "name": "Approval",
      "type": "event"
    },
    {
      "anonymous": false,
      "inputs": [
        {
          "indexed": true,
          "internalType": "address",
          "name": "delegator",
          "type": "address"
        },
        {
          "indexed": true,
          "internalType": "address",
          "name": "fromDelegate",
          "type": "address"
        },
        {
          "indexed": true,
          "internalType": "address",
          "name": "toDelegate",
          "type": "address"
        }
      ],
      "name": "DelegateChanged",
      "type": "event"
    },
    {
      "anonymous": false,
      "inputs": [
        {
          "indexed": true,
          "internalType": "address",
          "name": "delegate",
          "type": "address"
        },
        {
          "indexed": false,
          "internalType": "uint256",
          "name": "previousBalance",
          "type": "uint256"
        },
        {
          "indexed": false,
          "internalType": "uint256",
          "name": "newBalance",
          "type": "uint256"
        }
      ],
      "name": "DelegateVotesChanged",
      "type": "event"
    },
    {
      "anonymous": false,
      "inputs": [
        {
          "indexed": true,
          "internalType": "address",
          "name": "previousOwner",
          "type": "address"
        },
        {
          "indexed": true,
          "internalType": "address",
          "name": "newOwner",
          "type": "address"
        }
      ],
      "name": "OwnershipTransferred",
      "type": "event"
    },
    {
      "anonymous": false,
      "inputs": [
        {
          "indexed": false,
          "internalType": "address",
          "name": "account",
          "type": "address"
        }
      ],
      "name": "Paused",
      "type": "event"
    },
    {
      "anonymous": false,
      "inputs": [
        {
          "indexed": true,
          "internalType": "address",
          "name": "from",
          "type": "address"
        },
        {
          "indexed": true,
          "internalType": "address",
          "name": "to",
          "type": "address"
        },
        {
          "indexed": false,
          "internalType": "uint256",
          "name": "value",
          "type": "uint256"
        }
      ],
      "name": "Transfer",
      "type": "event"
    },
    {
      "anonymous": false,
      "inputs": [
        {
          "indexed": false,
          "internalType": "address",
          "name": "account",
          "type": "address"
        }
      ],
      "name": "Unpaused",
      "type": "event"
    },
    {
      "inputs": [],
      "name": "DOMAIN_SEPARATOR",
      "outputs": [
        {
          "internalType": "bytes32",
          "name": "",
          "type": "bytes32"
        }
      ],
      "stateMutability": "view",
      "type": "function"
    },
    {
      "inputs": [
        {
          "internalType": "address",
          "name": "owner",
          "type": "address"
        },
        {
          "internalType": "address",
          "name": "spender",
          "type": "address"
        }
      ],
      "name": "allowance",
      "outputs": [
        {
          "internalType": "uint256",
          "name": "",
          "type": "uint256"
        }
      ],
      "stateMutability": "view",
      "type": "function"
    },
    {
      "inputs": [
        {
          "internalType": "address",
          "name": "spender",
          "type": "address"
        },
        {
          "internalType": "uint256",
          "name": "amount",
          "type": "uint256"
        }
      ],
      "name": "approve",
      "outputs": [
        {
          "internalType": "bool",
          "name": "",
          "type": "bool"
        }
      ],
      "stateMutability": "nonpayable",
      "type": "function"
    },
    {
      "inputs": [
        {
          "internalType": "address",
          "name": "account",
          "type": "address"
        }
      ],
      "name": "balanceOf",
      "outputs": [
        {
          "internalType": "uint256",
          "name": "",
          "type": "uint256"
        }
      ],
      "stateMutability": "view",
      "type": "function"
    },
    {
      "inputs": [
        {
          "internalType": "uint256",
          "name": "amount",
          "type": "uint256"
        }
      ],
      "name": "burn",
      "outputs": [],
      "stateMutability": "nonpayable",
      "type": "function"
    },
    {
      "inputs": [
        {
          "internalType": "address",
          "name": "account",
          "type": "address"
        },
        {
          "internalType": "uint256",
          "name": "amount",
          "type": "uint256"
        }
      ],
      "name": "burnFrom",
      "outputs": [],
      "stateMutability": "nonpayable",
      "type": "function"
    },
    {
      "inputs": [
        {
          "internalType": "address",
          "name": "account",
          "type": "address"
        },
        {
          "internalType": "uint32",
          "name": "pos",
          "type": "uint32"
        }
      ],
      "name": "checkpoints",
      "outputs": [
        {
          "components": [
            {
              "internalType": "uint32",
              "name": "fromBlock",
              "type": "uint32"
            },
            {
              "internalType": "uint224",
              "name": "votes",
              "type": "uint224"
            }
          ],
          "internalType": "struct ERC20VotesUpgradeable.Checkpoint",
          "name": "",
          "type": "tuple"
        }
      ],
      "stateMutability": "view",
      "type": "function"
    },
    {
      "inputs": [],
      "name": "decimals",
      "outputs": [
        {
          "internalType": "uint8",
          "name": "",
          "type": "uint8"
        }
      ],
      "stateMutability": "view",
      "type": "function"
    },
    {
      "inputs": [
        {
          "internalType": "address",
          "name": "spender",
          "type": "address"
        },
        {
          "internalType": "uint256",
          "name": "subtractedValue",
          "type": "uint256"
        }
      ],
      "name": "decreaseAllowance",
      "outputs": [
        {
          "internalType": "bool",
          "name": "",
          "type": "bool"
        }
      ],
      "stateMutability": "nonpayable",
      "type": "function"
    },
    {
      "inputs": [
        {
          "internalType": "address",
          "name": "delegatee",
          "type": "address"
        }
      ],
      "name": "delegate",
      "outputs": [],
      "stateMutability": "nonpayable",
      "type": "function"
    },
    {
      "inputs": [
        {
          "internalType": "address",
          "name": "delegatee",
          "type": "address"
        },
        {
          "internalType": "uint256",
          "name": "nonce",
          "type": "uint256"
        },
        {
          "internalType": "uint256",
          "name": "expiry",
          "type": "uint256"
        },
        {
          "internalType": "uint8",
          "name": "v",
          "type": "uint8"
        },
        {
          "internalType": "bytes32",
          "name": "r",
          "type": "bytes32"
        },
        {
          "internalType": "bytes32",
          "name": "s",
          "type": "bytes32"
        }
      ],
      "name": "delegateBySig",
      "outputs": [],
      "stateMutability": "nonpayable",
      "type": "function"
    },
    {
      "inputs": [
        {
          "internalType": "address",
          "name": "account",
          "type": "address"
        }
      ],
      "name": "delegates",
      "outputs": [
        {
          "internalType": "address",
          "name": "",
          "type": "address"
        }
      ],
      "stateMutability": "view",
      "type": "function"
    },
    {
      "inputs": [
        {
          "internalType": "uint256",
          "name": "blockNumber",
          "type": "uint256"
        }
      ],
      "name": "getPastTotalSupply",
      "outputs": [
        {
          "internalType": "uint256",
          "name": "",
          "type": "uint256"
        }
      ],
      "stateMutability": "view",
      "type": "function"
    },
    {
      "inputs": [
        {
          "internalType": "address",
          "name": "account",
          "type": "address"
        },
        {
          "internalType": "uint256",
          "name": "blockNumber",
          "type": "uint256"
        }
      ],
      "name": "getPastVotes",
      "outputs": [
        {
          "internalType": "uint256",
          "name": "",
          "type": "uint256"
        }
      ],
      "stateMutability": "view",
      "type": "function"
    },
    {
      "inputs": [
        {
          "internalType": "address",
          "name": "account",
          "type": "address"
        }
      ],
      "name": "getVotes",
      "outputs": [
        {
          "internalType": "uint256",
          "name": "",
          "type": "uint256"
        }
      ],
      "stateMutability": "view",
      "type": "function"
    },
    {
      "inputs": [
        {
          "internalType": "address",
          "name": "spender",
          "type": "address"
        },
        {
          "internalType": "uint256",
          "name": "addedValue",
          "type": "uint256"
        }
      ],
      "name": "increaseAllowance",
      "outputs": [
        {
          "internalType": "bool",
          "name": "",
          "type": "bool"
        }
      ],
      "stateMutability": "nonpayable",
      "type": "function"
    },
    {
      "inputs": [],
      "name": "initialize",
      "outputs": [],
      "stateMutability": "nonpayable",
      "type": "function"
    },
    {
      "inputs": [
        {
          "internalType": "address",
          "name": "to",
          "type": "address"
        },
        {
          "internalType": "uint256",
          "name": "amount",
          "type": "uint256"
        }
      ],
      "name": "mint",
      "outputs": [],
      "stateMutability": "nonpayable",
      "type": "function"
    },
    {
      "inputs": [],
      "name": "name",
      "outputs": [
        {
          "internalType": "string",
          "name": "",
          "type": "string"
        }
      ],
      "stateMutability": "view",
      "type": "function"
    },
    {
      "inputs": [
        {
          "internalType": "address",
          "name": "owner",
          "type": "address"
        }
      ],
      "name": "nonces",
      "outputs": [
        {
          "internalType": "uint256",
          "name": "",
          "type": "uint256"
        }
      ],
      "stateMutability": "view",
      "type": "function"
    },
    {
      "inputs": [
        {
          "internalType": "address",
          "name": "account",
          "type": "address"
        }
      ],
      "name": "numCheckpoints",
      "outputs": [
        {
          "internalType": "uint32",
          "name": "",
          "type": "uint32"
        }
      ],
      "stateMutability": "view",
      "type": "function"
    },
    {
      "inputs": [],
      "name": "owner",
      "outputs": [
        {
          "internalType": "address",
          "name": "",
          "type": "address"
        }
      ],
      "stateMutability": "view",
      "type": "function"
    },
    {
      "inputs": [],
      "name": "pause",
      "outputs": [],
      "stateMutability": "nonpayable",
      "type": "function"
    },
    {
      "inputs": [],
      "name": "paused",
      "outputs": [
        {
          "internalType": "bool",
          "name": "",
          "type": "bool"
        }
      ],
      "stateMutability": "view",
      "type": "function"
    },
    {
      "inputs": [
        {
          "internalType": "address",
          "name": "owner",
          "type": "address"
        },
        {
          "internalType": "address",
          "name": "spender",
          "type": "address"
        },
        {
          "internalType": "uint256",
          "name": "value",
          "type": "uint256"
        },
        {
          "internalType": "uint256",
          "name": "deadline",
          "type": "uint256"
        },
        {
          "internalType": "uint8",
          "name": "v",
          "type": "uint8"
        },
        {
          "internalType": "bytes32",
          "name": "r",
          "type": "bytes32"
        },
        {
          "internalType": "bytes32",
          "name": "s",
          "type": "bytes32"
        }
      ],
      "name": "permit",
      "outputs": [],
      "stateMutability": "nonpayable",
      "type": "function"
    },
    {
      "inputs": [],
      "name": "renounceOwnership",
      "outputs": [],
      "stateMutability": "nonpayable",
      "type": "function"
    },
    {
      "inputs": [],
      "name": "symbol",
      "outputs": [
        {
          "internalType": "string",
          "name": "",
          "type": "string"
        }
      ],
      "stateMutability": "view",
      "type": "function"
    },
    {
      "inputs": [],
      "name": "totalSupply",
      "outputs": [
        {
          "internalType": "uint256",
          "name": "",
          "type": "uint256"
        }
      ],
      "stateMutability": "view",
      "type": "function"
    },
    {
      "inputs": [
        {
          "internalType": "address",
          "name": "recipient",
          "type": "address"
        },
        {
          "internalType": "uint256",
          "name": "amount",
          "type": "uint256"
        }
      ],
      "name": "transfer",
      "outputs": [
        {
          "internalType": "bool",
          "name": "",
          "type": "bool"
        }
      ],
      "stateMutability": "nonpayable",
      "type": "function"
    },
    {
      "inputs": [
        {
          "internalType": "address",
          "name": "sender",
          "type": "address"
        },
        {
          "internalType": "address",
          "name": "recipient",
          "type": "address"
        },
        {
          "internalType": "uint256",
          "name": "amount",
          "type": "uint256"
        }
      ],
      "name": "transferFrom",
      "outputs": [
        {
          "internalType": "bool",
          "name": "",
          "type": "bool"
        }
      ],
      "stateMutability": "nonpayable",
      "type": "function"
    },
    {
      "inputs": [
        {
          "internalType": "address",
          "name": "newOwner",
          "type": "address"
        }
      ],
      "name": "transferOwnership",
      "outputs": [],
      "stateMutability": "nonpayable",
      "type": "function"
    },
    {
      "inputs": [],
      "name": "unpause",
      "outputs": [],
      "stateMutability": "nonpayable",
      "type": "function"
    }
  ],
  "bytecode": "0x60806040523480156200001157600080fd5b50600060019054906101000a900460ff168062000039575060008054906101000a900460ff16155b6200007b576040517f08c379a000000000000000000000000000000000000000000000000000000000815260040162000072906200017c565b60405180910390fd5b60008060019054906101000a900460ff161590508015620000cc576001600060016101000a81548160ff02191690831515021790555060016000806101000a81548160ff0219169083151502179055505b8015620000ee5760008060016101000a81548160ff0219169083151502179055505b506200019e565b600082825260208201905092915050565b7f496e697469616c697a61626c653a20636f6e747261637420697320616c72656160008201527f647920696e697469616c697a6564000000000000000000000000000000000000602082015250565b600062000164602e83620000f5565b9150620001718262000106565b604082019050919050565b60006020820190508181036000830152620001978162000155565b9050919050565b61535280620001ae6000396000f3fe608060405234801561001057600080fd5b50600436106101f05760003560e01c8063715018a61161010f5780639ab24eb0116100a2578063d505accf11610071578063d505accf146105bb578063dd62ed3e146105d7578063f1127ed814610607578063f2fde38b14610637576101f0565b80639ab24eb01461050f578063a457c2d71461053f578063a9059cbb1461056f578063c3cda5201461059f576101f0565b80638456cb59116100de5780638456cb59146104995780638da5cb5b146104a35780638e539e8c146104c157806395d89b41146104f1576101f0565b8063715018a61461043957806379cc6790146104435780637ecebe001461045f5780638129fc1c1461048f576101f0565b80633f4ba83a116101875780635c19a95c116101565780635c19a95c1461039f5780635c975abb146103bb5780636fcfff45146103d957806370a0823114610409576101f0565b80633f4ba83a1461032d57806340c10f191461033757806342966c6814610353578063587cde1e1461036f576101f0565b8063313ce567116101c3578063313ce567146102915780633644e515146102af57806339509351146102cd5780633a46b1a8146102fd576101f0565b806306fdde03146101f5578063095ea7b31461021357806318160ddd1461024357806323b872dd14610261575b600080fd5b6101fd610653565b60405161020a9190613b3e565b60405180910390f35b61022d60048036038101906102289190613bf9565b6106e5565b60405161023a9190613c54565b60405180910390f35b61024b610703565b6040516102589190613c7e565b60405180910390f35b61027b60048036038101906102769190613c99565b61070d565b6040516102889190613c54565b60405180910390f35b610299610805565b6040516102a69190613d08565b60405180910390f35b6102b761080e565b6040516102c49190613d3c565b60405180910390f35b6102e760048036038101906102e29190613bf9565b61081d565b6040516102f49190613c54565b60405180910390f35b61031760048036038101906103129190613bf9565b6108c9565b6040516103249190613c7e565b60405180910390f35b61033561095e565b005b610351600480360381019061034c9190613bf9565b6109e4565b005b61036d60048036038101906103689190613d57565b610a6e565b005b61038960048036038101906103849190613d84565b610a82565b6040516103969190613dc0565b60405180910390f35b6103b960048036038101906103b49190613d84565b610aec565b005b6103c3610b00565b6040516103d09190613c54565b60405180910390f35b6103f360048036038101906103ee9190613d84565b610b17565b6040516104009190613dfa565b60405180910390f35b610423600480360381019061041e9190613d84565b610b6c565b6040516104309190613c7e565b60405180910390f35b610441610bb5565b005b61045d60048036038101906104589190613bf9565b610c3d565b005b61047960048036038101906104749190613d84565b610cb8565b6040516104869190613c7e565b60405180910390f35b610497610d09565b005b6104a1610eac565b005b6104ab610f32565b6040516104b89190613dc0565b60405180910390f35b6104db60048036038101906104d69190613d57565b610f5c565b6040516104e89190613c7e565b60405180910390f35b6104f9610fb3565b6040516105069190613b3e565b60405180910390f35b61052960048036038101906105249190613d84565b611045565b6040516105369190613c7e565b60405180910390f35b61055960048036038101906105549190613bf9565b611158565b6040516105669190613c54565b60405180910390f35b61058960048036038101906105849190613bf9565b611243565b6040516105969190613c54565b60405180910390f35b6105b960048036038101906105b49190613e6d565b611261565b005b6105d560048036038101906105d09190613efa565b611365565b005b6105f160048036038101906105ec9190613f9c565b61148a565b6040516105fe9190613c7e565b60405180910390f35b610621600480360381019061061c9190614008565b611511565b60405161062e91906140bd565b60405180910390f35b610651600480360381019061064c9190613d84565b611622565b005b60606036805461066290614107565b80601f016020809104026020016040519081016040528092919081815260200182805461068e90614107565b80156106db5780601f106106b0576101008083540402835291602001916106db565b820191906000526020600020905b8154815290600101906020018083116106be57829003601f168201915b5050505050905090565b60006106f96106f261171a565b8484611722565b6001905092915050565b6000603554905090565b600061071a8484846118ed565b6000603460008673ffffffffffffffffffffffffffffffffffffffff1673ffffffffffffffffffffffffffffffffffffffff168152602001908152602001600020600061076561171a565b73ffffffffffffffffffffffffffffffffffffffff1673ffffffffffffffffffffffffffffffffffffffff168152602001908152602001600020549050828110156107e5576040517f08c379a00000000000000000000000000000000000000000000000000000000081526004016107dc906141ab565b60405180910390fd5b6107f9856107f161171a565b858403611722565b60019150509392505050565b60006012905090565b6000610818611b71565b905090565b60006108bf61082a61171a565b84846034600061083861171a565b73ffffffffffffffffffffffffffffffffffffffff1673ffffffffffffffffffffffffffffffffffffffff16815260200190815260200160002060008873ffffffffffffffffffffffffffffffffffffffff1673ffffffffffffffffffffffffffffffffffffffff168152602001908152602001600020546108ba91906141fa565b611722565b6001905092915050565b600043821061090d576040517f08c379a00000000000000000000000000000000000000000000000000000000081526004016109049061429c565b60405180910390fd5b61095661016360008573ffffffffffffffffffffffffffffffffffffffff1673ffffffffffffffffffffffffffffffffffffffff16815260200190815260200160002083611bb1565b905092915050565b61096661171a565b73ffffffffffffffffffffffffffffffffffffffff16610984610f32565b73ffffffffffffffffffffffffffffffffffffffff16146109da576040517f08c379a00000000000000000000000000000000000000000000000000000000081526004016109d190614308565b60405180910390fd5b6109e2611cbd565b565b6109ec61171a565b73ffffffffffffffffffffffffffffffffffffffff16610a0a610f32565b73ffffffffffffffffffffffffffffffffffffffff1614610a60576040517f08c379a0000000000000000000000000000000000000000000000000000000008152600401610a5790614308565b60405180910390fd5b610a6a8282611d5f565b5050565b610a7f610a7961171a565b82611d6d565b50565b600061016260008373ffffffffffffffffffffffffffffffffffffffff1673ffffffffffffffffffffffffffffffffffffffff16815260200190815260200160002060009054906101000a900473ffffffffffffffffffffffffffffffffffffffff169050919050565b610afd610af761171a565b82611d7b565b50565b6000609760009054906101000a900460ff16905090565b6000610b6561016360008473ffffffffffffffffffffffffffffffffffffffff1673ffffffffffffffffffffffffffffffffffffffff16815260200190815260200160002080549050611e96565b9050919050565b6000603360008373ffffffffffffffffffffffffffffffffffffffff1673ffffffffffffffffffffffffffffffffffffffff168152602001908152602001600020549050919050565b610bbd61171a565b73ffffffffffffffffffffffffffffffffffffffff16610bdb610f32565b73ffffffffffffffffffffffffffffffffffffffff1614610c31576040517f08c379a0000000000000000000000000000000000000000000000000000000008152600401610c2890614308565b60405180910390fd5b610c3b6000611ee9565b565b6000610c5083610c4b61171a565b61148a565b905081811015610c95576040517f08c379a0000000000000000000000000000000000000000000000000000000008152600401610c8c9061439a565b60405180910390fd5b610ca983610ca161171a565b848403611722565b610cb38383611d6d565b505050565b6000610d0261012f60008473ffffffffffffffffffffffffffffffffffffffff1673ffffffffffffffffffffffffffffffffffffffff168152602001908152602001600020611faf565b9050919050565b600060019054906101000a900460ff1680610d2f575060008054906101000a900460ff16155b610d6e576040517f08c379a0000000000000000000000000000000000000000000000000000000008152600401610d659061442c565b60405180910390fd5b60008060019054906101000a900460ff161590508015610dbe576001600060016101000a81548160ff02191690831515021790555060016000806101000a81548160ff0219169083151502179055505b610e326040518060400160405280600981526020017f4c6f6461546f6b656e00000000000000000000000000000000000000000000008152506040518060400160405280600481526020017f4c544b4e00000000000000000000000000000000000000000000000000000000815250611fbd565b610e3a6120aa565b610e42612193565b610e4a61227c565b610e886040518060400160405280600981526020017f4c6f6461546f6b656e0000000000000000000000000000000000000000000000815250612365565b8015610ea95760008060016101000a81548160ff0219169083151502179055505b50565b610eb461171a565b73ffffffffffffffffffffffffffffffffffffffff16610ed2610f32565b73ffffffffffffffffffffffffffffffffffffffff1614610f28576040517f08c379a0000000000000000000000000000000000000000000000000000000008152600401610f1f90614308565b60405180910390fd5b610f3061248f565b565b600060c960009054906101000a900473ffffffffffffffffffffffffffffffffffffffff16905090565b6000438210610fa0576040517f08c379a0000000000000000000000000000000000000000000000000000000008152600401610f979061429c565b60405180910390fd5b610fac61016483611bb1565b9050919050565b606060378054610fc290614107565b80601f0160208091040260200160405190810160405280929190818152602001828054610fee90614107565b801561103b5780601f106110105761010080835404028352916020019161103b565b820191906000526020600020905b81548152906001019060200180831161101e57829003601f168201915b5050505050905090565b60008061016360008473ffffffffffffffffffffffffffffffffffffffff1673ffffffffffffffffffffffffffffffffffffffff1681526020019081526020016000208054905090506000811461112f5761016360008473ffffffffffffffffffffffffffffffffffffffff1673ffffffffffffffffffffffffffffffffffffffff1681526020019081526020016000206001826110e3919061444c565b815481106110f4576110f3614480565b5b9060005260206000200160000160049054906101000a90047bffffffffffffffffffffffffffffffffffffffffffffffffffffffff16611132565b60005b7bffffffffffffffffffffffffffffffffffffffffffffffffffffffff16915050919050565b6000806034600061116761171a565b73ffffffffffffffffffffffffffffffffffffffff1673ffffffffffffffffffffffffffffffffffffffff16815260200190815260200160002060008573ffffffffffffffffffffffffffffffffffffffff1673ffffffffffffffffffffffffffffffffffffffff16815260200190815260200160002054905082811015611224576040517f08c379a000000000000000000000000000000000000000000000000000000000815260040161121b90614521565b60405180910390fd5b61123861122f61171a565b85858403611722565b600191505092915050565b600061125761125061171a565b84846118ed565b6001905092915050565b834211156112a4576040517f08c379a000000000000000000000000000000000000000000000000000000000815260040161129b9061458d565b60405180910390fd5b60006113066112fe7fe48329057bfd03d55e49b547132e39cffd9c1820ad7b9d4c5307691425d15adf8989896040516020016112e394939291906145ad565b60405160208183030381529060405280519060200120612532565b85858561254c565b905061131181612577565b8614611352576040517f08c379a00000000000000000000000000000000000000000000000000000000081526004016113499061463e565b60405180910390fd5b61135c8188611d7b565b50505050505050565b834211156113a8576040517f08c379a000000000000000000000000000000000000000000000000000000000815260040161139f906146aa565b60405180910390fd5b6000610130548888886113ba8c612577565b896040516020016113d0969594939291906146ca565b60405160208183030381529060405280519060200120905060006113f382612532565b905060006114038287878761254c565b90508973ffffffffffffffffffffffffffffffffffffffff168173ffffffffffffffffffffffffffffffffffffffff1614611473576040517f08c379a000000000000000000000000000000000000000000000000000000000815260040161146a90614777565b60405180910390fd5b61147e8a8a8a611722565b50505050505050505050565b6000603460008473ffffffffffffffffffffffffffffffffffffffff1673ffffffffffffffffffffffffffffffffffffffff16815260200190815260200160002060008373ffffffffffffffffffffffffffffffffffffffff1673ffffffffffffffffffffffffffffffffffffffff16815260200190815260200160002054905092915050565b6115196139c4565b61016360008473ffffffffffffffffffffffffffffffffffffffff1673ffffffffffffffffffffffffffffffffffffffff1681526020019081526020016000208263ffffffff168154811061157157611570614480565b5b906000526020600020016040518060400160405290816000820160009054906101000a900463ffffffff1663ffffffff1663ffffffff1681526020016000820160049054906101000a90047bffffffffffffffffffffffffffffffffffffffffffffffffffffffff167bffffffffffffffffffffffffffffffffffffffffffffffffffffffff167bffffffffffffffffffffffffffffffffffffffffffffffffffffffff1681525050905092915050565b61162a61171a565b73ffffffffffffffffffffffffffffffffffffffff16611648610f32565b73ffffffffffffffffffffffffffffffffffffffff161461169e576040517f08c379a000000000000000000000000000000000000000000000000000000000815260040161169590614308565b60405180910390fd5b600073ffffffffffffffffffffffffffffffffffffffff168173ffffffffffffffffffffffffffffffffffffffff16141561170e576040517f08c379a000000000000000000000000000000000000000000000000000000000815260040161170590614809565b60405180910390fd5b61171781611ee9565b50565b600033905090565b600073ffffffffffffffffffffffffffffffffffffffff168373ffffffffffffffffffffffffffffffffffffffff161415611792576040517f08c379a00000000000000000000000000000000000000000000000000000000081526004016117899061489b565b60405180910390fd5b600073ffffffffffffffffffffffffffffffffffffffff168273ffffffffffffffffffffffffffffffffffffffff161415611802576040517f08c379a00000000000000000000000000000000000000000000000000000000081526004016117f99061492d565b60405180910390fd5b80603460008573ffffffffffffffffffffffffffffffffffffffff1673ffffffffffffffffffffffffffffffffffffffff16815260200190815260200160002060008473ffffffffffffffffffffffffffffffffffffffff1673ffffffffffffffffffffffffffffffffffffffff168152602001908152602001600020819055508173ffffffffffffffffffffffffffffffffffffffff168373ffffffffffffffffffffffffffffffffffffffff167f8c5be1e5ebec7d5bd14f71427d1e84f3dd0314c0f7b2291e5b200ac8c7c3b925836040516118e09190613c7e565b60405180910390a3505050565b600073ffffffffffffffffffffffffffffffffffffffff168373ffffffffffffffffffffffffffffffffffffffff16141561195d576040517f08c379a0000000000000000000000000000000000000000000000000000000008152600401611954906149bf565b60405180910390fd5b600073ffffffffffffffffffffffffffffffffffffffff168273ffffffffffffffffffffffffffffffffffffffff1614156119cd576040517f08c379a00000000000000000000000000000000000000000000000000000000081526004016119c490614a51565b60405180910390fd5b6119d88383836125d6565b6000603360008573ffffffffffffffffffffffffffffffffffffffff1673ffffffffffffffffffffffffffffffffffffffff16815260200190815260200160002054905081811015611a5f576040517f08c379a0000000000000000000000000000000000000000000000000000000008152600401611a5690614ae3565b60405180910390fd5b818103603360008673ffffffffffffffffffffffffffffffffffffffff1673ffffffffffffffffffffffffffffffffffffffff1681526020019081526020016000208190555081603360008573ffffffffffffffffffffffffffffffffffffffff1673ffffffffffffffffffffffffffffffffffffffff1681526020019081526020016000206000828254611af491906141fa565b925050819055508273ffffffffffffffffffffffffffffffffffffffff168473ffffffffffffffffffffffffffffffffffffffff167fddf252ad1be2c89b69c2b068fc378daa952ba7f163c4a11628f55a4df523b3ef84604051611b589190613c7e565b60405180910390a3611b6b84848461262e565b50505050565b6000611bac7f8b73c3c69bb8fe3d512ecc4cf759cc79239f7b179b0ffacaa9a75d522b39400f611b9f61263e565b611ba7612648565b612652565b905090565b6000808380549050905060005b81811015611c30576000611bd2828461268c565b905084868281548110611be857611be7614480565b5b9060005260206000200160000160009054906101000a900463ffffffff1663ffffffff161115611c1a57809250611c2a565b600181611c2791906141fa565b91505b50611bbe565b60008214611c925784600183611c46919061444c565b81548110611c5757611c56614480565b5b9060005260206000200160000160049054906101000a90047bffffffffffffffffffffffffffffffffffffffffffffffffffffffff16611c95565b60005b7bffffffffffffffffffffffffffffffffffffffffffffffffffffffff169250505092915050565b611cc5610b00565b611d04576040517f08c379a0000000000000000000000000000000000000000000000000000000008152600401611cfb90614b4f565b60405180910390fd5b6000609760006101000a81548160ff0219169083151502179055507f5db9ee0a495bf2e6ff9c91a7834c1ba4fdd244a5e8aa4e537bd38aeae4b073aa611d4861171a565b604051611d559190613dc0565b60405180910390a1565b611d6982826126b2565b5050565b611d778282612740565b5050565b6000611d8683610a82565b90506000611d9384610b6c565b90508261016260008673ffffffffffffffffffffffffffffffffffffffff1673ffffffffffffffffffffffffffffffffffffffff16815260200190815260200160002060006101000a81548173ffffffffffffffffffffffffffffffffffffffff021916908373ffffffffffffffffffffffffffffffffffffffff1602179055508273ffffffffffffffffffffffffffffffffffffffff168273ffffffffffffffffffffffffffffffffffffffff168573ffffffffffffffffffffffffffffffffffffffff167f3134e8a2e6d97e929a7e54011ea5485d7d196dd5f0ba4d4ef95803e8e3fc257f60405160405180910390a4611e9082848361275f565b50505050565b600063ffffffff8016821115611ee1576040517f08c379a0000000000000000000000000000000000000000000000000000000008152600401611ed890614be1565b60405180910390fd5b819050919050565b600060c960009054906101000a900473ffffffffffffffffffffffffffffffffffffffff1690508160c960006101000a81548173ffffffffffffffffffffffffffffffffffffffff021916908373ffffffffffffffffffffffffffffffffffffffff1602179055508173ffffffffffffffffffffffffffffffffffffffff168173ffffffffffffffffffffffffffffffffffffffff167f8be0079c531659141344cd1fd0a4f28419497f9722a3daafe3b4186f6b6457e060405160405180910390a35050565b600081600001549050919050565b600060019054906101000a900460ff1680611fe3575060008054906101000a900460ff16155b612022576040517f08c379a00000000000000000000000000000000000000000000000000000000081526004016120199061442c565b60405180910390fd5b60008060019054906101000a900460ff161590508015612072576001600060016101000a81548160ff02191690831515021790555060016000806101000a81548160ff0219169083151502179055505b61207a61295a565b6120848383612a33565b80156120a55760008060016101000a81548160ff0219169083151502179055505b505050565b600060019054906101000a900460ff16806120d0575060008054906101000a900460ff16155b61210f576040517f08c379a00000000000000000000000000000000000000000000000000000000081526004016121069061442c565b60405180910390fd5b60008060019054906101000a900460ff16159050801561215f576001600060016101000a81548160ff02191690831515021790555060016000806101000a81548160ff0219169083151502179055505b61216761295a565b61216f612b3c565b80156121905760008060016101000a81548160ff0219169083151502179055505b50565b600060019054906101000a900460ff16806121b9575060008054906101000a900460ff16155b6121f8576040517f08c379a00000000000000000000000000000000000000000000000000000000081526004016121ef9061442c565b60405180910390fd5b60008060019054906101000a900460ff161590508015612248576001600060016101000a81548160ff02191690831515021790555060016000806101000a81548160ff0219169083151502179055505b61225061295a565b612258612c15565b80156122795760008060016101000a81548160ff0219169083151502179055505b50565b600060019054906101000a900460ff16806122a2575060008054906101000a900460ff16155b6122e1576040517f08c379a00000000000000000000000000000000000000000000000000000000081526004016122d89061442c565b60405180910390fd5b60008060019054906101000a900460ff161590508015612331576001600060016101000a81548160ff02191690831515021790555060016000806101000a81548160ff0219169083151502179055505b61233961295a565b612341612d09565b80156123625760008060016101000a81548160ff0219169083151502179055505b50565b600060019054906101000a900460ff168061238b575060008054906101000a900460ff16155b6123ca576040517f08c379a00000000000000000000000000000000000000000000000000000000081526004016123c19061442c565b60405180910390fd5b60008060019054906101000a900460ff16159050801561241a576001600060016101000a81548160ff02191690831515021790555060016000806101000a81548160ff0219169083151502179055505b61242261295a565b612461826040518060400160405280600181526020017f3100000000000000000000000000000000000000000000000000000000000000815250612df2565b61246a82612ef5565b801561248b5760008060016101000a81548160ff0219169083151502179055505b5050565b612497610b00565b156124d7576040517f08c379a00000000000000000000000000000000000000000000000000000000081526004016124ce90614c4d565b60405180910390fd5b6001609760006101000a81548160ff0219169083151502179055507f62e78cea01bee320cd4e420270b5ea74000d11b0c9f74754ebdbfc544b05a25861251b61171a565b6040516125289190613dc0565b60405180910390a1565b600061254561253f611b71565b83612ff7565b9050919050565b600080600061255d8787878761302a565b9150915061256a81613137565b8192505050949350505050565b60008061012f60008473ffffffffffffffffffffffffffffffffffffffff1673ffffffffffffffffffffffffffffffffffffffff16815260200190815260200160002090506125c581611faf565b91506125d08161330c565b50919050565b6125de610b00565b1561261e576040517f08c379a000000000000000000000000000000000000000000000000000000000815260040161261590614c4d565b60405180910390fd5b612629838383613322565b505050565b612639838383613327565b505050565b600060fb54905090565b600060fc54905090565b6000838383463060405160200161266d959493929190614c6d565b6040516020818303038152906040528051906020012090509392505050565b6000600282841861269d9190614cef565b8284166126aa91906141fa565b905092915050565b6126bc8282613352565b6126c46134b3565b7bffffffffffffffffffffffffffffffffffffffffffffffffffffffff166126ea610703565b111561272b576040517f08c379a000000000000000000000000000000000000000000000000000000000815260040161272290614d92565b60405180910390fd5b61273a6101646134d7836134ed565b50505050565b61274a8282613765565b61275961016461393e836134ed565b50505050565b8173ffffffffffffffffffffffffffffffffffffffff168373ffffffffffffffffffffffffffffffffffffffff161415801561279b5750600081115b1561295557600073ffffffffffffffffffffffffffffffffffffffff168373ffffffffffffffffffffffffffffffffffffffff161461287a5760008061282361016360008773ffffffffffffffffffffffffffffffffffffffff1673ffffffffffffffffffffffffffffffffffffffff16815260200190815260200160002061393e856134ed565b915091508473ffffffffffffffffffffffffffffffffffffffff167fdec2bacdd2f05b59de34da9b523dff8be42e5e38e818c82fdb0bae774387a724838360405161286f929190614db2565b60405180910390a250505b600073ffffffffffffffffffffffffffffffffffffffff168273ffffffffffffffffffffffffffffffffffffffff1614612954576000806128fd61016360008673ffffffffffffffffffffffffffffffffffffffff1673ffffffffffffffffffffffffffffffffffffffff1681526020019081526020016000206134d7856134ed565b915091508373ffffffffffffffffffffffffffffffffffffffff167fdec2bacdd2f05b59de34da9b523dff8be42e5e38e818c82fdb0bae774387a7248383604051612949929190614db2565b60405180910390a250505b5b505050565b600060019054906101000a900460ff1680612980575060008054906101000a900460ff16155b6129bf576040517f08c379a00000000000000000000000000000000000000000000000000000000081526004016129b69061442c565b60405180910390fd5b60008060019054906101000a900460ff161590508015612a0f576001600060016101000a81548160ff02191690831515021790555060016000806101000a81548160ff0219169083151502179055505b8015612a305760008060016101000a81548160ff0219169083151502179055505b50565b600060019054906101000a900460ff1680612a59575060008054906101000a900460ff16155b612a98576040517f08c379a0000000000000000000000000000000000000000000000000000000008152600401612a8f9061442c565b60405180910390fd5b60008060019054906101000a900460ff161590508015612ae8576001600060016101000a81548160ff02191690831515021790555060016000806101000a81548160ff0219169083151502179055505b8260369080519060200190612afe929190613a02565b508160379080519060200190612b15929190613a02565b508015612b375760008060016101000a81548160ff0219169083151502179055505b505050565b600060019054906101000a900460ff1680612b62575060008054906101000a900460ff16155b612ba1576040517f08c379a0000000000000000000000000000000000000000000000000000000008152600401612b989061442c565b60405180910390fd5b60008060019054906101000a900460ff161590508015612bf1576001600060016101000a81548160ff02191690831515021790555060016000806101000a81548160ff0219169083151502179055505b8015612c125760008060016101000a81548160ff0219169083151502179055505b50565b600060019054906101000a900460ff1680612c3b575060008054906101000a900460ff16155b612c7a576040517f08c379a0000000000000000000000000000000000000000000000000000000008152600401612c719061442c565b60405180910390fd5b60008060019054906101000a900460ff161590508015612cca576001600060016101000a81548160ff02191690831515021790555060016000806101000a81548160ff0219169083151502179055505b6000609760006101000a81548160ff0219169083151502179055508015612d065760008060016101000a81548160ff0219169083151502179055505b50565b600060019054906101000a900460ff1680612d2f575060008054906101000a900460ff16155b612d6e576040517f08c379a0000000000000000000000000000000000000000000000000000000008152600401612d659061442c565b60405180910390fd5b60008060019054906101000a900460ff161590508015612dbe576001600060016101000a81548160ff02191690831515021790555060016000806101000a81548160ff0219169083151502179055505b612dce612dc961171a565b611ee9565b8015612def5760008060016101000a81548160ff0219169083151502179055505b50565b600060019054906101000a900460ff1680612e18575060008054906101000a900460ff16155b612e57576040517f08c379a0000000000000000000000000000000000000000000000000000000008152600401612e4e9061442c565b60405180910390fd5b60008060019054906101000a900460ff161590508015612ea7576001600060016101000a81548160ff02191690831515021790555060016000806101000a81548160ff0219169083151502179055505b6000838051906020012090506000838051906020012090508160fb819055508060fc8190555050508015612ef05760008060016101000a81548160ff0219169083151502179055505b505050565b600060019054906101000a900460ff1680612f1b575060008054906101000a900460ff16155b612f5a576040517f08c379a0000000000000000000000000000000000000000000000000000000008152600401612f519061442c565b60405180910390fd5b60008060019054906101000a900460ff161590508015612faa576001600060016101000a81548160ff02191690831515021790555060016000806101000a81548160ff0219169083151502179055505b7f6e71edae12b1b97f4d1f60370fef10105fa2faae0126114a169c64845d6126c9610130819055508015612ff35760008060016101000a81548160ff0219169083151502179055505b5050565b6000828260405160200161300c929190614e53565b60405160208183030381529060405280519060200120905092915050565b6000807f7fffffffffffffffffffffffffffffff5d576e7357a4501ddfe92f46681b20a08360001c111561306557600060039150915061312e565b601b8560ff161415801561307d5750601c8560ff1614155b1561308f57600060049150915061312e565b6000600187878787604051600081526020016040526040516130b49493929190614e8a565b6020604051602081039080840390855afa1580156130d6573d6000803e3d6000fd5b505050602060405103519050600073ffffffffffffffffffffffffffffffffffffffff168173ffffffffffffffffffffffffffffffffffffffff1614156131255760006001925092505061312e565b80600092509250505b94509492505050565b6000600481111561314b5761314a614ecf565b5b81600481111561315e5761315d614ecf565b5b141561316957613309565b6001600481111561317d5761317c614ecf565b5b8160048111156131905761318f614ecf565b5b14156131d1576040517f08c379a00000000000000000000000000000000000000000000000000000000081526004016131c890614f4a565b60405180910390fd5b600260048111156131e5576131e4614ecf565b5b8160048111156131f8576131f7614ecf565b5b1415613239576040517f08c379a000000000000000000000000000000000000000000000000000000000815260040161323090614fb6565b60405180910390fd5b6003600481111561324d5761324c614ecf565b5b8160048111156132605761325f614ecf565b5b14156132a1576040517f08c379a000000000000000000000000000000000000000000000000000000000815260040161329890615048565b60405180910390fd5b6004808111156132b4576132b3614ecf565b5b8160048111156132c7576132c6614ecf565b5b1415613308576040517f08c379a00000000000000000000000000000000000000000000000000000000081526004016132ff906150da565b60405180910390fd5b5b50565b6001816000016000828254019250508190555050565b505050565b613332838383613954565b61334d61333e84610a82565b61334784610a82565b8361275f565b505050565b600073ffffffffffffffffffffffffffffffffffffffff168273ffffffffffffffffffffffffffffffffffffffff1614156133c2576040517f08c379a00000000000000000000000000000000000000000000000000000000081526004016133b990615146565b60405180910390fd5b6133ce600083836125d6565b80603560008282546133e091906141fa565b9250508190555080603360008473ffffffffffffffffffffffffffffffffffffffff1673ffffffffffffffffffffffffffffffffffffffff168152602001908152602001600020600082825461343691906141fa565b925050819055508173ffffffffffffffffffffffffffffffffffffffff16600073ffffffffffffffffffffffffffffffffffffffff167fddf252ad1be2c89b69c2b068fc378daa952ba7f163c4a11628f55a4df523b3ef8360405161349b9190613c7e565b60405180910390a36134af6000838361262e565b5050565b60007bffffffffffffffffffffffffffffffffffffffffffffffffffffffff905090565b600081836134e591906141fa565b905092915050565b6000806000858054905090506000811461355b578560018261350f919061444c565b815481106135205761351f614480565b5b9060005260206000200160000160049054906101000a90047bffffffffffffffffffffffffffffffffffffffffffffffffffffffff1661355e565b60005b7bffffffffffffffffffffffffffffffffffffffffffffffffffffffff16925061358c83858763ffffffff16565b91506000811180156135df575043866001836135a8919061444c565b815481106135b9576135b8614480565b5b9060005260206000200160000160009054906101000a900463ffffffff1663ffffffff16145b1561366c576135ed82613959565b866001836135fb919061444c565b8154811061360c5761360b614480565b5b9060005260206000200160000160046101000a8154817bffffffffffffffffffffffffffffffffffffffffffffffffffffffff02191690837bffffffffffffffffffffffffffffffffffffffffffffffffffffffff16021790555061375c565b85604051806040016040528061368143611e96565b63ffffffff16815260200161369585613959565b7bffffffffffffffffffffffffffffffffffffffffffffffffffffffff168152509080600181540180825580915050600190039060005260206000200160009091909190915060008201518160000160006101000a81548163ffffffff021916908363ffffffff16021790555060208201518160000160046101000a8154817bffffffffffffffffffffffffffffffffffffffffffffffffffffffff02191690837bffffffffffffffffffffffffffffffffffffffffffffffffffffffff16021790555050505b50935093915050565b600073ffffffffffffffffffffffffffffffffffffffff168273ffffffffffffffffffffffffffffffffffffffff1614156137d5576040517f08c379a00000000000000000000000000000000000000000000000000000000081526004016137cc906151d8565b60405180910390fd5b6137e1826000836125d6565b6000603360008473ffffffffffffffffffffffffffffffffffffffff1673ffffffffffffffffffffffffffffffffffffffff16815260200190815260200160002054905081811015613868576040517f08c379a000000000000000000000000000000000000000000000000000000000815260040161385f9061526a565b60405180910390fd5b818103603360008573ffffffffffffffffffffffffffffffffffffffff1673ffffffffffffffffffffffffffffffffffffffff1681526020019081526020016000208190555081603560008282546138c0919061444c565b92505081905550600073ffffffffffffffffffffffffffffffffffffffff168373ffffffffffffffffffffffffffffffffffffffff167fddf252ad1be2c89b69c2b068fc378daa952ba7f163c4a11628f55a4df523b3ef846040516139259190613c7e565b60405180910390a36139398360008461262e565b505050565b6000818361394c919061444c565b905092915050565b505050565b60007bffffffffffffffffffffffffffffffffffffffffffffffffffffffff80168211156139bc576040517f08c379a00000000000000000000000000000000000000000000000000000000081526004016139b3906152fc565b60405180910390fd5b819050919050565b6040518060400160405280600063ffffffff16815260200160007bffffffffffffffffffffffffffffffffffffffffffffffffffffffff1681525090565b828054613a0e90614107565b90600052602060002090601f016020900481019282613a305760008555613a77565b82601f10613a4957805160ff1916838001178555613a77565b82800160010185558215613a77579182015b82811115613a76578251825591602001919060010190613a5b565b5b509050613a849190613a88565b5090565b5b80821115613aa1576000816000905550600101613a89565b5090565b600081519050919050565b600082825260208201905092915050565b60005b83811015613adf578082015181840152602081019050613ac4565b83811115613aee576000848401525b50505050565b6000601f19601f8301169050919050565b6000613b1082613aa5565b613b1a8185613ab0565b9350613b2a818560208601613ac1565b613b3381613af4565b840191505092915050565b60006020820190508181036000830152613b588184613b05565b905092915050565b600080fd5b600073ffffffffffffffffffffffffffffffffffffffff82169050919050565b6000613b9082613b65565b9050919050565b613ba081613b85565b8114613bab57600080fd5b50565b600081359050613bbd81613b97565b92915050565b6000819050919050565b613bd681613bc3565b8114613be157600080fd5b50565b600081359050613bf381613bcd565b92915050565b60008060408385031215613c1057613c0f613b60565b5b6000613c1e85828601613bae565b9250506020613c2f85828601613be4565b9150509250929050565b60008115159050919050565b613c4e81613c39565b82525050565b6000602082019050613c696000830184613c45565b92915050565b613c7881613bc3565b82525050565b6000602082019050613c936000830184613c6f565b92915050565b600080600060608486031215613cb257613cb1613b60565b5b6000613cc086828701613bae565b9350506020613cd186828701613bae565b9250506040613ce286828701613be4565b9150509250925092565b600060ff82169050919050565b613d0281613cec565b82525050565b6000602082019050613d1d6000830184613cf9565b92915050565b6000819050919050565b613d3681613d23565b82525050565b6000602082019050613d516000830184613d2d565b92915050565b600060208284031215613d6d57613d6c613b60565b5b6000613d7b84828501613be4565b91505092915050565b600060208284031215613d9a57613d99613b60565b5b6000613da884828501613bae565b91505092915050565b613dba81613b85565b82525050565b6000602082019050613dd56000830184613db1565b92915050565b600063ffffffff82169050919050565b613df481613ddb565b82525050565b6000602082019050613e0f6000830184613deb565b92915050565b613e1e81613cec565b8114613e2957600080fd5b50565b600081359050613e3b81613e15565b92915050565b613e4a81613d23565b8114613e5557600080fd5b50565b600081359050613e6781613e41565b92915050565b60008060008060008060c08789031215613e8a57613e89613b60565b5b6000613e9889828a01613bae565b9650506020613ea989828a01613be4565b9550506040613eba89828a01613be4565b9450506060613ecb89828a01613e2c565b9350506080613edc89828a01613e58565b92505060a0613eed89828a01613e58565b9150509295509295509295565b600080600080600080600060e0888a031215613f1957613f18613b60565b5b6000613f278a828b01613bae565b9750506020613f388a828b01613bae565b9650506040613f498a828b01613be4565b9550506060613f5a8a828b01613be4565b9450506080613f6b8a828b01613e2c565b93505060a0613f7c8a828b01613e58565b92505060c0613f8d8a828b01613e58565b91505092959891949750929550565b60008060408385031215613fb357613fb2613b60565b5b6000613fc185828601613bae565b9250506020613fd285828601613bae565b9150509250929050565b613fe581613ddb565b8114613ff057600080fd5b50565b60008135905061400281613fdc565b92915050565b6000806040838503121561401f5761401e613b60565b5b600061402d85828601613bae565b925050602061403e85828601613ff3565b9150509250929050565b61405181613ddb565b82525050565b60007bffffffffffffffffffffffffffffffffffffffffffffffffffffffff82169050919050565b61408881614057565b82525050565b6040820160008201516140a46000850182614048565b5060208201516140b7602085018261407f565b50505050565b60006040820190506140d2600083018461408e565b92915050565b7f4e487b7100000000000000000000000000000000000000000000000000000000600052602260045260246000fd5b6000600282049050600182168061411f57607f821691505b60208210811415614133576141326140d8565b5b50919050565b7f45524332303a207472616e7366657220616d6f756e742065786365656473206160008201527f6c6c6f77616e6365000000000000000000000000000000000000000000000000602082015250565b6000614195602883613ab0565b91506141a082614139565b604082019050919050565b600060208201905081810360008301526141c481614188565b9050919050565b7f4e487b7100000000000000000000000000000000000000000000000000000000600052601160045260246000fd5b600061420582613bc3565b915061421083613bc3565b9250827fffffffffffffffffffffffffffffffffffffffffffffffffffffffffffffffff03821115614245576142446141cb565b5b828201905092915050565b7f4552433230566f7465733a20626c6f636b206e6f7420796574206d696e656400600082015250565b6000614286601f83613ab0565b915061429182614250565b602082019050919050565b600060208201905081810360008301526142b581614279565b9050919050565b7f4f776e61626c653a2063616c6c6572206973206e6f7420746865206f776e6572600082015250565b60006142f2602083613ab0565b91506142fd826142bc565b602082019050919050565b60006020820190508181036000830152614321816142e5565b9050919050565b7f45524332303a206275726e20616d6f756e74206578636565647320616c6c6f7760008201527f616e636500000000000000000000000000000000000000000000000000000000602082015250565b6000614384602483613ab0565b915061438f82614328565b604082019050919050565b600060208201905081810360008301526143b381614377565b9050919050565b7f496e697469616c697a61626c653a20636f6e747261637420697320616c72656160008201527f647920696e697469616c697a6564000000000000000000000000000000000000602082015250565b6000614416602e83613ab0565b9150614421826143ba565b604082019050919050565b6000602082019050818103600083015261444581614409565b9050919050565b600061445782613bc3565b915061446283613bc3565b925082821015614475576144746141cb565b5b828203905092915050565b7f4e487b7100000000000000000000000000000000000000000000000000000000600052603260045260246000fd5b7f45524332303a2064656372656173656420616c6c6f77616e63652062656c6f7760008201527f207a65726f000000000000000000000000000000000000000000000000000000602082015250565b600061450b602583613ab0565b9150614516826144af565b604082019050919050565b6000602082019050818103600083015261453a816144fe565b9050919050565b7f4552433230566f7465733a207369676e61747572652065787069726564000000600082015250565b6000614577601d83613ab0565b915061458282614541565b602082019050919050565b600060208201905081810360008301526145a68161456a565b9050919050565b60006080820190506145c26000830187613d2d565b6145cf6020830186613db1565b6145dc6040830185613c6f565b6145e96060830184613c6f565b95945050505050565b7f4552433230566f7465733a20696e76616c6964206e6f6e636500000000000000600082015250565b6000614628601983613ab0565b9150614633826145f2565b602082019050919050565b600060208201905081810360008301526146578161461b565b9050919050565b7f45524332305065726d69743a206578706972656420646561646c696e65000000600082015250565b6000614694601d83613ab0565b915061469f8261465e565b602082019050919050565b600060208201905081810360008301526146c381614687565b9050919050565b600060c0820190506146df6000830189613d2d565b6146ec6020830188613db1565b6146f96040830187613db1565b6147066060830186613c6f565b6147136080830185613c6f565b61472060a0830184613c6f565b979650505050505050565b7f45524332305065726d69743a20696e76616c6964207369676e61747572650000600082015250565b6000614761601e83613ab0565b915061476c8261472b565b602082019050919050565b6000602082019050818103600083015261479081614754565b9050919050565b7f4f776e61626c653a206e6577206f776e657220697320746865207a65726f206160008201527f6464726573730000000000000000000000000000000000000000000000000000602082015250565b60006147f3602683613ab0565b91506147fe82614797565b604082019050919050565b60006020820190508181036000830152614822816147e6565b9050919050565b7f45524332303a20617070726f76652066726f6d20746865207a65726f2061646460008201527f7265737300000000000000000000000000000000000000000000000000000000602082015250565b6000614885602483613ab0565b915061489082614829565b604082019050919050565b600060208201905081810360008301526148b481614878565b9050919050565b7f45524332303a20617070726f766520746f20746865207a65726f20616464726560008201527f7373000000000000000000000000000000000000000000000000000000000000602082015250565b6000614917602283613ab0565b9150614922826148bb565b604082019050919050565b600060208201905081810360008301526149468161490a565b9050919050565b7f45524332303a207472616e736665722066726f6d20746865207a65726f20616460008201527f6472657373000000000000000000000000000000000000000000000000000000602082015250565b60006149a9602583613ab0565b91506149b48261494d565b604082019050919050565b600060208201905081810360008301526149d88161499c565b9050919050565b7f45524332303a207472616e7366657220746f20746865207a65726f206164647260008201527f6573730000000000000000000000000000000000000000000000000000000000602082015250565b6000614a3b602383613ab0565b9150614a46826149df565b604082019050919050565b60006020820190508181036000830152614a6a81614a2e565b9050919050565b7f45524332303a207472616e7366657220616d6f756e742065786365656473206260008201527f616c616e63650000000000000000000000000000000000000000000000000000602082015250565b6000614acd602683613ab0565b9150614ad882614a71565b604082019050919050565b60006020820190508181036000830152614afc81614ac0565b9050919050565b7f5061757361626c653a206e6f7420706175736564000000000000000000000000600082015250565b6000614b39601483613ab0565b9150614b4482614b03565b602082019050919050565b60006020820190508181036000830152614b6881614b2c565b9050919050565b7f53616665436173743a2076616c756520646f65736e27742066697420696e203360008201527f3220626974730000000000000000000000000000000000000000000000000000602082015250565b6000614bcb602683613ab0565b9150614bd682614b6f565b604082019050919050565b60006020820190508181036000830152614bfa81614bbe565b9050919050565b7f5061757361626c653a2070617573656400000000000000000000000000000000600082015250565b6000614c37601083613ab0565b9150614c4282614c01565b602082019050919050565b60006020820190508181036000830152614c6681614c2a565b9050919050565b600060a082019050614c826000830188613d2d565b614c8f6020830187613d2d565b614c9c6040830186613d2d565b614ca96060830185613c6f565b614cb66080830184613db1565b9695505050505050565b7f4e487b7100000000000000000000000000000000000000000000000000000000600052601260045260246000fd5b6000614cfa82613bc3565b9150614d0583613bc3565b925082614d1557614d14614cc0565b5b828204905092915050565b7f4552433230566f7465733a20746f74616c20737570706c79207269736b73206f60008201527f766572666c6f77696e6720766f74657300000000000000000000000000000000602082015250565b6000614d7c603083613ab0565b9150614d8782614d20565b604082019050919050565b60006020820190508181036000830152614dab81614d6f565b9050919050565b6000604082019050614dc76000830185613c6f565b614dd46020830184613c6f565b9392505050565b600081905092915050565b7f1901000000000000000000000000000000000000000000000000000000000000600082015250565b6000614e1c600283614ddb565b9150614e2782614de6565b600282019050919050565b6000819050919050565b614e4d614e4882613d23565b614e32565b82525050565b6000614e5e82614e0f565b9150614e6a8285614e3c565b602082019150614e7a8284614e3c565b6020820191508190509392505050565b6000608082019050614e9f6000830187613d2d565b614eac6020830186613cf9565b614eb96040830185613d2d565b614ec66060830184613d2d565b95945050505050565b7f4e487b7100000000000000000000000000000000000000000000000000000000600052602160045260246000fd5b7f45434453413a20696e76616c6964207369676e61747572650000000000000000600082015250565b6000614f34601883613ab0565b9150614f3f82614efe565b602082019050919050565b60006020820190508181036000830152614f6381614f27565b9050919050565b7f45434453413a20696e76616c6964207369676e6174757265206c656e67746800600082015250565b6000614fa0601f83613ab0565b9150614fab82614f6a565b602082019050919050565b60006020820190508181036000830152614fcf81614f93565b9050919050565b7f45434453413a20696e76616c6964207369676e6174757265202773272076616c60008201527f7565000000000000000000000000000000000000000000000000000000000000602082015250565b6000615032602283613ab0565b915061503d82614fd6565b604082019050919050565b6000602082019050818103600083015261506181615025565b9050919050565b7f45434453413a20696e76616c6964207369676e6174757265202776272076616c60008201527f7565000000000000000000000000000000000000000000000000000000000000602082015250565b60006150c4602283613ab0565b91506150cf82615068565b604082019050919050565b600060208201905081810360008301526150f3816150b7565b9050919050565b7f45524332303a206d696e7420746f20746865207a65726f206164647265737300600082015250565b6000615130601f83613ab0565b915061513b826150fa565b602082019050919050565b6000602082019050818103600083015261515f81615123565b9050919050565b7f45524332303a206275726e2066726f6d20746865207a65726f2061646472657360008201527f7300000000000000000000000000000000000000000000000000000000000000602082015250565b60006151c2602183613ab0565b91506151cd82615166565b604082019050919050565b600060208201905081810360008301526151f1816151b5565b9050919050565b7f45524332303a206275726e20616d6f756e7420657863656564732062616c616e60008201527f6365000000000000000000000000000000000000000000000000000000000000602082015250565b6000615254602283613ab0565b915061525f826151f8565b604082019050919050565b6000602082019050818103600083015261528381615247565b9050919050565b7f53616665436173743a2076616c756520646f65736e27742066697420696e203260008201527f3234206269747300000000000000000000000000000000000000000000000000602082015250565b60006152e6602783613ab0565b91506152f18261528a565b604082019050919050565b60006020820190508181036000830152615315816152d9565b905091905056fea26469706673582212200fe062a97f3780e957407cf93ddf1b3b2673fed39326ba0f5b05798a0479896f64736f6c63430008090033",
  "linkReferences": {},
  "deployedLinkReferences": {}
}